:020000040800F2
:10000000481900203508000881040008830400080E
:10001000870400088B0400088F040008000000001B
:100020000000000000000000000000009304000831
:1000300095040008000000009704000899040008D7
:100040004F0800084F0800084F0800084F08000834
:100050004F0800084F0800084F0800084F08000824
:100060004F0800084F0800084F0800084F08000814
:100070004F0800084F0800084F0800084F08000804
:100080004F0800084F0800084F0800084F080008F4
:100090004F0800084F0800084F0800084F080008E4
:1000A0004F0800084F0800084F0800084F080008D4
:1000B0004F0800084F0800084F0800084F080008C4
:1000C0004F0800084F0800084F0800084F080008B4
:1000D0004F0800084F0800084F0800084F080008A4
:1000E0004F0800084F0800084F08000800F002F809
:1000F00000F03AF80AA090E8000C82448344AAF188
:100100000107DA4501D100F02FF8AFF2090EBAE885
:100110000F0013F0010F18BFFB1A43F0010318473B
:10012000D8AA0000F8AA0000103A24BF78C878C105
:10013000FAD8520724BF30C830C144BF04680C60ED
:10014000704700000023002400250026103A28BF35
:1001500078C1FBD8520728BF30C148BF0B60704739
:100160001FB51FBD10B510BD02F00EFC1146FFF704
:10017000F7FF00F009F802F040FC03B4FFF7F2FFCC
:1001800003BC00F0F7FA00008EB0002211464FF4D5
:10019000E13000F0FEFA95A002F090FB9BA002F087
:1001A0008DFB00F06BFA00F0DFFA01F055F91CE16D
:1001B00001F0D3FA994801F0AAFB002098490860A1
:1001C00001F04CFC022000F0BAFA01F0C6FA9548A2
:1001D00001F09DFB01F042FC022000F0B0FA01F0BA
:1001E0004CFA01F046FC904801F0A3FB002541E0E9
:1001F00000243BE0002735E000262FE040222021AC
:100200008A4800EB0520EE23CDE90930CDE90B1239
:10021000864800EB0420CE22CDE90512CDE9070186
:100220008349A4222023814800EB0720CDE9023234
:10023000049101907C2000907C4800EB06225C2118
:10024000184601F02BFC4FF4FA7000F054FA1CB978
:10025000012F01D106B910E0701CC6B20A2ECDDB09
:10026000781CC7B2062FC7DB601CC4B20A2CC1DBE6
:10027000681CC5B2062DBBDB00BF01F0FEF901F022
:10028000F8FB01F0EBFB032000F059FAFF205A23A2
:100290004FF4947280210090664801F0E7FD01F070
:1002A00096FAFF2001F0DCFE012003460022014601
:1002B0000090032001F009FF0120022300220F21FA
:1002C0000090032001F001FF0120032300222821D8
:1002D0000090052001F0F9FE0120042300223721BF
:1002E0000090052001F0F1FE00200121CDE9000180
:1002F0006E233722052102900F2001F037FF0020E6
:100300000121CDE900010A233722322102900F207A
:1003100001F02CFF0120002100912D233722CDE98F
:10032000011005210F2001F08CFF01200022CDE9F2
:1003300000202D238222052102905A2001F081FF06
:10034000012000210B461222CDE900101921AA201C
:1003500001F0D3FF01200090002312221921019007
:10036000E22001F0CAFF0020FF21334B33A2CDE988
:10037000001032213C2002F02CF90020FF21314BEB
:1003800031A2CDE9001032218C2002F022F90020A8
:10039000FF21314B31A2CDE900104B21502002F05A
:1003A00018F90020FF21314B31A2CDE90010642162
:1003B000502002F00EF90120194908601D4801F093
:1003C00040F900202D49C1F8A00101F047FB0320AE
:1003D00000F0B5F901F051F901F04BFB01F03EFBE3
:1003E000022000F0ACF900BFFEE7E1E60D0A2D2D7A
:1003F00020322E39696E63682065706170657220E5
:1004000064656D6F202D2D0D0A00000053544D338F
:100410003246313033433854360D0A00943A0008DE
:10042000A0812142144D0008945F0008942E00081A
:10043000943800085000002030000020616263649E
:1004400065666700380000204142436162633031D5
:10045000323334350000000040000020322E3922B3
:1004600020452D506170657200000000480000209A
:100470005345454E475245415400000000802142FB
:10048000704700BFFEE700BFFEE700BFFEE700BF0A
:10049000FEE7704770477047704700000CB50020BA
:1004A000019000906C48006840F480306A49086010
:1004B00000BF6948006800F4003000900198401CBB
:1004C0000190009818B90198B0F5A06FF1D1624879
:1004D000006800F4003010B10120009001E000201D
:1004E00000900098012843D15C48006840F010005B
:1004F0005A4908600846006820F003000860084672
:10050000006840F002000860534840685249486063
:100510000846406848600846406840F4806048608B
:100520000846406820F47C1048600846406840F463
:10053000E81048600846006840F08070086000BF1E
:100540004548006800F000700028F9D04248406833
:1005500020F00300404948600846406840F002002F
:10056000486000BF3C48406800F00C000828F9D102
:100570000CBD10B5FFF792FF10BD10B536480068EE
:1005800040F001003449086008464068344908409A
:100590003149486008460068324908402E490860E1
:1005A0000846006820F4802008600846406820F46F
:1005B000FE0048604FF41F008860FFF7DAFF4FF03D
:1005C00000602949086010BD10B5002100200022FC
:1005D000214B5B6803F00C0121B1042906D00829E6
:1005E00028D107E0214B224C236027E01F4B204CF1
:1005F000236023E0184B5B6803F47010164B5B68B4
:1006000003F48032022303EB904022B9194B434399
:10061000174C23600DE0104B5B6803F4003323B1EB
:10062000144B4343124C236003E0104B4343104CE4
:10063000236003E00D4B0E4C236000BF00BF064B50
:100640005B68C3F303130C4CE15C094B1B68CB40A4
:10065000074C236010BD0000001002400020024043
:100660000000FFF8FFFFF6FE08ED00E000127A0040
:100670000000002000093D000400002010B56FF0CC
:10068000040000F046F9344800683449B0FBF1F04A
:10069000334908700846007800EB4001C1EBC010F8
:1006A0004FF6FF7101EAC0002E49088010BD0146D7
:1006B0002B4A12784A434FF0E0235A6100229A6194
:1006C0001A46126942F001021A6100BF4FF0E0229F
:1006D000106900F001021AB100F48032002AF5D04E
:1006E0004FF0E022126922F001024FF0E0231A617C
:1006F00000229A61704701461A4A12884A434FF015
:10070000E0235A6100229A611A46126942F00102FE
:100710001A6100BF4FF0E022106900F001021AB127
:1007200000F48032002AF5D04FF0E022126922F066
:1007300001024FF0E0231A6100229A61704730B540
:100740000446002505E04FF47A70FFF7D4FF681CDB
:1007500085B2A542F7DB30BD0000002000127A0010
:10076000140000201600002010B54FF4A06000F027
:1007700081F810BD014600BF704700BF2B4A1288A8
:1007800002F04002002AF9D0C2B2284B1B1D1A8089
:10079000704770B586B004460E461546012144F2F6
:1007A000050000F0F1FB4FF40070ADF814000320D9
:1007B0008DF8160018208DF8170005A91C4800F0C8
:1007C00027F94FF48060ADF8140004208DF817006D
:1007D00005A9174800F01CF925208DF800008DF8B8
:1007E00001608DF8025001208DF80300684600F08A
:1007F00046F801940020ADF80800ADF80A00ADF805
:100800000C00ADF810000C20ADF80E0001A907484F
:1008100000F061FC012240F22551044800F0F3FC95
:100820000121024800F0E3FC06B070BD0038014031
:10083000000801400948804709480047FEE7FEE7F5
:10084000FEE7FEE7FEE7FEE7FEE7FEE7FEE7FEE780
:1008500004480549054A064B704700007B0500081F
:10086000ED0000084813002048190020481500201A
:100870004815002031490143314A1160704770B575
:10088000002100230F22C47804B32D4C246804F403
:10089000E064C4F5E064210AC1F10403CA4044786D
:1008A00004FA03F18478144021430901254C0678A9
:1008B000A155047804F01F050124AC4005786D11A2
:1008C000AD0005F1E025C5F8004109E0047804F029
:1008D0001F050124AC401C4D0678761145F82640D2
:1008E00070BD1A4A0A400243154B1B1F1A6070471D
:1008F00039B1134A121D12680243114B1B1D1A60B5
:1009000006E00F4A121D126882430D4B1B1D1A6030
:100910007047042808D14FF0E021096941F0040133
:100920004FF0E022116107E04FF0E021096921F06A
:1009300004014FF0E0221161704700000000FA0549
:100940000CED00E000E400E080E100E080FFFF1F2C
:1009500010B50446CC48844208D10121042000F09F
:100960002DFB0021042000F029FB46E0C74884420B
:1009700008D10121082000F021FB0021082000F00F
:100980001DFB3AE0C248844208D10121102000F04A
:1009900015FB0021102000F011FB2EE0BD48844221
:1009A00008D10121202000F009FB0021202000F0C7
:1009B00005FB22E0B848844208D10121402000F024
:1009C000FDFA0021402000F0F9FA16E0B348844215
:1009D00008D10121802000F0F1FA0021802000F0F0
:1009E000EDFA0AE0AE48844207D10121801500F0FB
:1009F000E5FA0021A01500F0E1FA10BD10B50121C3
:100A0000084600F0DBFA0021012000F0D7FA10BD03
:100A10002DE9F04102460025002600200023002495
:100A2000002791F803C00CF00F0591F803C00CF0FB
:100A3000100CBCF1000F03D091F802C04CEA050580
:100A400091F800C0BCF1000F31D0146800202BE0F9
:100A50004FF0010C0CFA00F3B1F800C00CEA0306E9
:100A60009E4220D183004FF00F0C0CFA03F7BC43D9
:100A700005FA03FC4CEA040491F803C0BCF1280F0A
:100A800006D14FF0010C0CFA00FCC2F814C00AE0C9
:100A900091F803C0BCF1480F05D14FF0010C0CFADE
:100AA00000FCC2F810C0401C0828D1D31460B1F873
:100AB00000C0BCF1FF0F34DD546800202EE000F1CF
:100AC000080C4FF0010808FA0CF3B1F800C00CEA6A
:100AD00003069E4221D183004FF00F0C0CFA03F75E
:100AE000BC4305FA03FC4CEA040491F803C0BCF1D2
:100AF000280F05D100F1080C08FA0CF8C2F8148090
:100B000091F803C0BCF1480F07D100F1080C4FF079
:100B1000010808FA0CF8C2F81080401C0828CED34F
:100B20005460BDE8F0814FF6FF71018002218170B1
:100B30000421C17070470246002093680B400BB13E
:100B4000012000E0002070470146886880B27047AD
:100B500002460020D3680B400BB1012000E00020CA
:100B600070470146C86880B27047016170474161B3
:100B700070470AB1016100E041617047C160704790
:100B80004FF480320A4382618161826182698269A5
:100B9000704702460020434B18684FF68073184098
:100BA00040EA021008433F4B186070473E49C86155
:100BB0007047F0B50A46002300240021002500F00C
:100BC0000046B6F1004F02D1364EF16901E0354ED4
:100BD0007168C0F3034583B200F44016B6F5401FB8
:100BE00008D121F070612F4E766826F070662D4F87
:100BF0007E6012E000F48016B6F5801F06D1032651
:100C000006FA05F4A14341F0706106E0460D360195
:100C100003FA06F6B14341F0706122B1460D360188
:100C200003FA06F6314300F00046B6F1004F02D158
:100C30001C4EF16101E01B4E7160F0BD30B5002229
:100C40008B071C0F0F2303FA04F2164B08338C108A
:100C500053F824309343134C08348D1044F8253056
:100C600023468C1053F824308C07240F00FA04F428
:100C700023430C4C08348D1044F8253030BD0A490C
:100C8000DC3108607047000000080140000C0140A2
:100C9000001001400014014000180140001C0140F8
:100CA000002001400000014000002042DF480068B1
:100CB00040F00100DD49086008464068DC49084012
:100CC000DA49486008460068DA490840D7490860B0
:100CD0000846006820F4802008600846406820F438
:100CE000FE0048604FF41F0088607047CF490968D4
:100CF00021F48031CD4A11601146096821F4802128
:100D00001160B0F5803F03D0B0F5802F0ED106E022
:100D1000C649096841F48031C44A116007E0C349FB
:100D2000096841F4A021C14A116000E000BF00BF82
:100D3000704710B501460022002300204A11012A05
:100D400002D1BA4C236806E0022A02D1B74C236ACA
:100D500001E0B64C636A01F01F02012494401C407C
:100D60000CB1012000E0002010BD38B5002000903B
:100D70000024002500BF3120FFF7DBFF0546009867
:100D8000401C00900098B0F5A06F01D0002DF2D06B
:100D90003120FFF7CEFF08B1012400E000242046F7
:100DA00038BD01460020A14A106820F0F80040EA52
:100DB000C10010607047A0490860704702460020DB
:100DC0009A4B586820F47C1042EA01031843974B71
:100DD0005860704798490866704701460020934A5A
:100DE000506820F003000843506070478F48406807
:100DF00000F00C007047014600208C4A506820F03B
:100E0000F00008435060704701460020874A506850
:100E100020F4E06008435060704701460020834A98
:100E2000506820F4605040EAC1005060704729B11A
:100E30007E4A527A02437D4B5A7204E07B4A527AD0
:100E400082437A4B5A7270477B49D83108607047A9
:100E500001460020754A506820F440400843506025
:100E600070470021714A20321170704A82F82010B8
:100E7000012802D004280AD104E001216B4A203263
:100E8000117005E00521694A2032117000E000BFB1
:100E900000BF70476949086070476449096A0143A7
:100EA000624A11627047654944390860704730B53D
:100EB00000210022002400235C4D6D6805F00C0128
:100EC00021B1042905D0082923D105E05C4D056036
:100ED00022E05B4D05601FE0544D6D6805F4701213
:100EE000524D6D6805F48034022505EB92421CB921
:100EF000544D554305600BE04C4D6D6805F40035CD
:100F00001DB1504D5543056002E04D4D5543056000
:100F100002E04B4D056000BF00BF444D6D6805F019
:100F2000F0010909484D6B5C0568DD4045603F4DA7
:100F30006D6805F4E061090A434D6B5C4568DD406E
:100F400085603A4D6D6805F46051C90A3E4D6B5C91
:100F50004568DD40C560354D6D6805F44041890B3D
:100F60003A4D6B5CC568B5FBF3F5056130BD29B141
:100F70002E4A526902432D4B5A6104E02B4A5269B2
:100F800082432A4B5A61704729B1284A9269024329
:100F9000264B9A6104E0254A92698243234B9A6169
:100FA000704729B1214AD2690243204BDA6104E03B
:100FB0001E4AD26982431D4BDA61704729B11B4A30
:100FC000D2680243194BDA6004E0184AD2688243BF
:100FD000164BDA60704729B1144A12690243134B69
:100FE0001A6104E0114A12698243104B1A6170477A
:100FF00012494039086070470F49C86470470B496F
:10100000C87170470948406A40F0807007494862DB
:10101000704701460020054A92680A400AB1012043
:1010200000E00020704701498872704700100240BC
:101030000000FFF8FFFFF6FE00004242800442423B
:1010400000127A0000093D001C0000202C00002046
:1010500010B50446FB48844209D101218803FFF7FB
:10106000ADFF00214FF48040FFF7A8FF32E0F648C3
:10107000844209D101214804FFF7ADFF00214FF45C
:101080000030FFF7A8FF25E0F048844209D1012194
:101090008804FFF7A0FF00214FF48020FFF79BFF9B
:1010A00018E0EB48844209D10121C804FFF793FFFF
:1010B00000214FF40020FFF78EFF0BE0E54884424B
:1010C00008D101210805FFF786FF00214FF48010A9
:1010D000FFF781FF10BD2DE9F04786B005460E46AB
:1010E0000024A24600BFA1460027B08900B100BF7E
:1010F0002F462C8A4CF6FF700440F08804432C8263
:10110000AC894EF6F3100440B088318908437189E8
:1011100008430443AC81AC8A4FF6FF400440B089D9
:101120000443AC8201A8FFF7C2FEC648874202D141
:10113000DDF810A001E0DDF80CA0A88900F4004063
:1011400040B10AEBCA0000EB0A1031684900B0FB5D
:10115000F1F807E00AEBCA0000EB0A1031688900D9
:10116000B0FBF1F86420B8FBF0F004012009642121
:1011700001FB1089A88900F4004040B1322000EB47
:10118000C900B0FBF1F000F00700044308E0322092
:1011900000EB09106421B0FBF1F000F00F000443F4
:1011A0002C8106B0BDE8F0874FF416510160002194
:1011B0008180C18001810C214181002181817047A2
:1011C00010B502460020108A4FF2FF0318400B882A
:1011D0004C8823438C882343CC88234318431082B4
:1011E00010BD0021018041808180C180704721B104
:1011F000828942F40052828104E082894DF6FF73B5
:101200001A4082817047F0B503460024002600256D
:10121000002040F66A17B94200D100BF1846C1F35A
:10122000421401F01F06012707FA06F5012C01D12F
:101230000C3004E0022C01D1103000E014301AB15F
:1012400007682F43076002E00768AF430760F0BDFF
:101250001AB1838A0B43838202E0838A8B438382A1
:101260007047028A4FF6F0731A400282028A0A43DC
:101270000282704782894FF2FF731A40828182890D
:101280000A438281704721B1828942F00202828141
:1012900004E082894FF6FD731A4082817047028A0A
:1012A0004FF6DF731A400282028A0A4302827047B5
:1012B00021B1028A42F48042028204E0028A4BF6A3
:1012C000FF731A4002827047C1F3080282807047A0
:1012D00001468888C0F308007047818941F0010108
:1012E00081817047028BD2B20283028B42EA0122D3
:1012F00002837047028B02F47F420283028B0A430F
:101300000283704721B1828A42F02002828204E087
:10131000828A4FF6DF731A408282704721B1828A37
:1013200042F01002828204E0828A4FF6EF731A4084
:101330008282704721B1828A42F00802828204E0F0
:10134000828A4FF6F7731A408282704721B18289F0
:1013500042F40042828103E08289C2F30E0282815C
:10136000704721B1828A42F40062828204E0828A5C
:101370004FF2FF731A4082827047828A4FF6FB73E6
:101380001A408282828A0A438282704721B1828A0D
:1013900042F00202828204E0828A4FF6FD731A4014
:1013A0008282704702460020B1F5007F00D100BF65
:1013B00013880B400BB1012000E00020704701F4BE
:1013C0000072B2F5007F00D100BFCA4302807047AF
:1013D00070B50246002400230025002040F66A165E
:1013E000B14200D100BFC1F3421501F01F03012635
:1013F00006FA03F3012D02D19689334006E0022D4F
:1014000002D1168A334001E0968A33400C1201263D
:1014100006FA04F41688344013B10CB1012000E040
:10142000002070BD10B50022002340F66A14A142CE
:1014300000D100BF0A1201249440A3B2DC4304800F
:1014400010BD00000038014000440040004800404A
:10145000004C00400050004008B501210C20FFF76F
:1014600093FD4FF43040ADF8000010208DF80300DC
:1014700003208DF802006946FE48FFF7C9FA4FF4D1
:101480001060ADF8000010208DF8030003208DF8E7
:1014900002006946F848FFF7BBFA4FF48050ADF8F8
:1014A000000028208DF8030003208DF80200694613
:1014B000F148FFF7ADFA4FF48070ADF8000010204E
:1014C0008DF8030003208DF802006946E948FFF714
:1014D0009FFA0020E949086008BD002117E00022BA
:1014E000E64B14331A6000F0800222B10122E34B74
:1014F0001C331A6003E00022E04B1C331A604206E2
:10150000100E0122DD4B14331A604A1CD1B2082997
:10151000E5DB704710B504460020D849103108605B
:10152000D749C1F8A0012046FFF7D7FF0120D349D2
:101530001031086010BD10B504460020CF491031AD
:1015400008600120CE49C1F8A0012046FFF7C5FF81
:101550000120CA491031086010BD06E042F6E06182
:1015600000BF0A1EA1F10101FBD1021EA0F1010082
:10157000F4D1704700B506E00A20FFF7EEFFC1483E
:10158000006800B900E0F7E700BF00BD10B50146F4
:101590000023BA4C14342360002217E001F08003CA
:1015A00023B10123B54C1C34236003E00023B34C6A
:1015B0001C3423600123B14C143423600023B24C4B
:1015C000C4F8B4314B06190E531CDAB2082AE5DB15
:1015D00010BD10B504460120A84910310860002054
:1015E000A949C1F8B001A749703108602046FFF74A
:1015F000CDFF0120A449C1F8B00110BD10B50446CB
:1016000001209E491031086000209F49C1F8B001B7
:1016100001209C49703108602046FFF7B7FF012088
:101620009949C1F8B00110BD00B52220FFF7D1FFE4
:10163000F720FFF7E3FF2020FFF7CBFFFFF79AFF2C
:1016400000BD2DE9F041064610274FF49478242080
:10165000FFF760FF00250AE0002405E005FB0741D5
:10166000705CFFF768FF641CBC42F7D36D1C4545F6
:10167000F2D3FFF7D9FFBDE8F08100B50020814922
:101680007C3108600A20FFF768FF01207C49C1F81F
:10169000AC010A20FFF761FFFFF76CFF1220FFF794
:1016A00098FFFFF767FF0120FFF793FF0A20FFF77E
:1016B00054FF2720FFF7A2FF0A20FFF74EFF01206B
:1016C000FFF79CFF0A20FFF748FF0020FFF796FF77
:1016D0001120FFF77EFF0120FFF790FF4420FFF766
:1016E00078FF0020FFF78AFF0F20FFF787FF4520D4
:1016F000FFF76FFF2720FFF781FF0120FFF77EFF35
:101700000020FFF77BFF0020FFF778FF3C20FFF76A
:1017100060FF0520FFF772FF2120FFF75AFF00202E
:10172000FFF76CFF8020FFF769FF1820FFF751FFDC
:101730008020FFF763FF4E20FFF74BFF0020FFF7ED
:101740005DFF4F20FFF745FF2720FFF757FF0120E0
:10175000FFF754FFFFF70EFF00BD00B50020494919
:101760007C3108600A20FFF7F8FE01204449C1F8E7
:10177000AC010A20FFF7F1FE1220FFF72AFFFFF766
:10178000F9FE1820FFF725FF8020FFF737FF222002
:10179000FFF71FFFB120FFF731FF2020FFF719FFF0
:1017A000FFF7E8FE1A20FFF714FF6420FFF726FF7B
:1017B0000020FFF723FF2220FFF70BFF9120FFF708
:1017C0001DFF2020FFF705FFFFF7D4FE00BD00B589
:1017D00000202C497C3108600A20FFF7BEFE012062
:1017E0002749C1F8AC010A20FFF7B7FEFFF7C2FE98
:1017F0001220FFF7EEFEFFF7BDFE0120FFF7E9FE26
:101800000A20FFF7AAFE2720FFF7F8FE0A20FFF7BD
:10181000A4FE0120FFF7F2FE0A20FFF79EFE002043
:10182000FFF7ECFE1120FFF7D4FE0120FFF7E6FEE4
:101830004420FFF7CEFE0020FFF7E0FE0F20FFF769
:10184000DDFE4520FFF7C5FE2720FFF7D7FE01206C
:10185000FFF7D4FE0020FFF7D1FE0020FFF7CEFEF9
:101860003C20FFF7B6FE0520FFF7C8FE1820FFF763
:10187000B0FE0BE0000C014000080140A0812142B5
:101880000000214230012142008021428020FFF7E8
:10189000B5FE4E20FFF79DFE0020FFF7AFFE4F2064
:1018A000FFF797FE2720FFF7A9FE0120FFF7A6FE0E
:1018B000FFF760FE00BD00B52220FFF78AFEC720BB
:1018C000FFF79CFE2020FFF784FEFFF753FE00BDCC
:1018D00000B52220FFF77DFEFF20FFF78FFE2020BE
:1018E000FFF777FEFFF746FE00BD30B50446242023
:1018F000FFF76FFE002504E02078FFF77FFE641CF1
:101900006D1CB5F5945FF7D3FFF78EFE30BD30B593
:1019100004462420FFF75DFE002504E02078FFF751
:101920006DFE641C6D1CB5F5945FF7D3FFF7C3FF24
:1019300030BD70B5044626462420FFF74AFE002538
:1019400004E02078FFF75AFE641C6D1CB5F5945F27
:10195000F7D334462620FFF73CFE002504E020782C
:10196000FFF74CFE641C6D1CB5F5945FF7D3FFF7D1
:101970005BFE70BD2DE9FE4F04460F46904699462A
:10198000DDF830B0E40804EBDB00401E02900020DC
:1019900001903D46FF2F02D9280A0190EDB20020A8
:1019A000009007EB0900461EFF2E02D9300A009076
:1019B000F6B20020FE4908600A20FFF7CEFD0120A4
:1019C000FC49C1F8AC010A20FFF7C7FD3C20FFF736
:1019D00000FE8020FFF712FE4420FFF7FAFDE0B280
:1019E000FFF70CFE0299C8B2FFF708FE4520FFF78B
:1019F000F0FDE8B2FFF702FE0199C8B2FFF7FEFD65
:101A0000F0B2FFF7FBFD0099C8B2FFF7F7FD4E20DB
:101A1000FFF7DFFDE0B2FFF7F1FD4F20FFF7D9FD43
:101A2000E8B2FFF7EBFD0199C8B2FFF7E7FD24200C
:101A3000FFF7CFFD4FF0000A07E098F80000FFF72E
:101A4000DDFD08F101080AF1010A09FB0BF0BAEB10
:101A5000D00FF2D3FFF73CFFBDE8FE8F00B510209A
:101A6000FFF7B7FD0120FFF7C9FD6420FFF775FD03
:101A700000BD30B52420FFF7ACFD002408E00025B0
:101A800003E0FF20FFF7BAFD6D1C102DF9D3641C95
:101A9000B4F5947FF3D3FFF7C7FD30BD2DE9FF4FB9
:101AA00081B08346DDE919784FEADB0B0BEBD800F8
:101AB000401E00904FF000090298451E0298FF2832
:101AC00002D94FEA1529EDB24FF0000A02983844C6
:101AD000441EFF2C02D94FEA142AE4B20020B44974
:101AE00008600A20FFF739FD0120B249C1F8AC01B6
:101AF0000A20FFF732FD3C20FFF76BFD8020FFF747
:101B00007DFD4420FFF765FD0BF0FF00FFF776FD3C
:101B10000099C8B2FFF772FD4520FFF75AFDE8B201
:101B2000FFF76CFD09F0FF00FFF768FDE0B2FFF77B
:101B300065FD0AF0FF00FFF761FD4E20FFF749FD4C
:101B40000BF0FF00FFF75AFD4F20FFF742FDE8B210
:101B5000FFF754FD09F0FF00FFF750FD2420FFF7C9
:101B600038FD002607E003990878FFF747FD039842
:101B7000401C0390761C07FB08F0B6EBD00FF2D3A5
:101B80000498C0080490049800EBD800401E009010
:101B90004FF000090E98451E0E98FF2802D94FEA13
:101BA0001529EDB24FF0000A0E983844441EFF2C60
:101BB00002D94FEA142AE4B24420FFF70AFD04993F
:101BC000C8B2FFF71BFD0099C8B2FFF717FD45200B
:101BD000FFF7FFFCE8B2FFF711FD09F0FF00FFF788
:101BE0000DFDE0B2FFF70AFD0AF0FF00FFF706FD6A
:101BF0004E20FFF7EEFC0499C8B2FFF7FFFC4F2020
:101C0000FFF7E7FCE8B2FFF7F9FC09F0FF00FFF788
:101C1000F5FC2420FFF7DDFC002607E00F9908788B
:101C2000FFF7ECFC0F98401C0F90761C07FB08F0A8
:101C3000B6EBD00FF2D31098C0081090109800EBBC
:101C4000D800401E00904FF000091198451E1198D1
:101C5000FF2802D94FEA1529EDB24FF0000A11987A
:101C60003844441EFF2C02D94FEA142AE4B244201F
:101C7000FFF7AFFC1099C8B2FFF7C0FC0099C8B2DB
:101C8000FFF7BCFC4520FFF7A4FCE8B2FFF7B6FC69
:101C900009F0FF00FFF7B2FCE0B2FFF7AFFC0AF07B
:101CA000FF00FFF7ABFC4E20FFF793FC1099C8B282
:101CB000FFF7A4FC4F20FFF78CFCE8B2FFF79EFC77
:101CC00009F0FF00FFF79AFC2420FFF782FC0026B2
:101CD00007E012990878FFF791FC1298401C1290C7
:101CE000761C07FB08F0B6EBD00FF2D31398C008B0
:101CF0001390139800EBD800401E00904FF000099D
:101D00001498451E1498FF2802D94FEA1529EDB200
:101D10004FF0000A14983844441EFF2C02D94FEAB1
:101D2000142AE4B24420FFF754FC1399C8B2FFF719
:101D300065FC0099C8B2FFF761FC4520FFF749FC3C
:101D4000E8B2FFF75BFC09F0FF00FFF757FCE0B2D9
:101D5000FFF754FC0AF0FF00FFF750FC4E20FFF79E
:101D600038FC1399C8B2FFF749FC4F20FFF731FC4C
:101D7000E8B2FFF743FC09F0FF00FFF73FFC242027
:101D8000FFF727FC002607E015990878FFF736FCD7
:101D90001598401C1590761C07FB08F0B6EBD00F89
:101DA000F2D31698C0081690169800EBD80003E0FE
:101DB000AC01214200002142401E00904FF000097A
:101DC0001798451E1798FF2802D94FEA1529EDB23A
:101DD0004FF0000A17983844441EFF2C02D94FEAEE
:101DE000142AE4B24420FFF7F4FB1699C8B2FFF7B7
:101DF00005FC0099C8B2FFF701FC4520FFF7E9FB9D
:101E0000E8B2FFF7FBFB09F0FF00FFF7F7FBE0B2DA
:101E1000FFF7F4FB0AF0FF00FFF7F0FB4E20FFF79F
:101E2000D8FB1699C8B2FFF7E9FB4F20FFF7D1FBAB
:101E3000E8B2FFF7E3FB09F0FF00FFF7DFFB242028
:101E4000FFF7C7FB002607E018990878FFF7D6FBD5
:101E50001898401C1890761C07FB08F0B6EBD00FC2
:101E6000F2D3FFF735FD05B0BDE8F08F2DE9F04165
:101E70000646069F0020FE4C206020460660018139
:101E8000428187810C464FEAE17C01EB5C7C4FEAA2
:101E9000EC0CA1EBCC0CBCF1000F07D10D464FEAC6
:101EA000E57C05EB5C7C4FEAEC0C08E008464FEA69
:101EB000E17C01EB5C7C4FEAEC0C0CF1010CDFF8EF
:101EC000B083A8F812C040468282C38101204446F4
:101ED00020820BB1B42B03D1E5488180C28002E09F
:101EE000E3488280C180BDE8F081E1490860704725
:101EF00030B15A2804D0B42802D0B0F5877F01D180
:101F0000DB49C881704728B1012803D0022801D0DD
:101F1000032801D1D649088270472DE9F0410346D4
:101F20000C461746D24EB6889E4203DBD04EF6884A
:101F3000A64201DABDE8F081CD4EF6893EB15A2EB7
:101F400008D0B42E0DD0B6F5877F1CD114E018460A
:101F5000214619E0C64E3689361B761EB0B21946A8
:101F600012E0C34E3689F61A761EB0B2C04E76899C
:101F7000361B761EB1B207E02046BD4E7689F61AB2
:101F8000761EB1B200E0D5E700BFB94E368A36B151
:101F9000012E05D0022E09D0032E18D10CE017E037
:101FA000B34E3689361A761EB0B211E0B04E76893D
:101FB000761A761EB1B20BE0AD4E3689361A761E11
:101FC000B0B2AB4E7689761A761EB1B200E0B1E7B8
:101FD00000BFA74E3689864203DBA54E76898E4226
:101FE00000DAA7E706464FEAE07C00EB5C7C4FEAAC
:101FF000EC0CDFF87C82B8F8128001FB08C29C4E22
:102000003668B55CAFB906464FEAE07C00EB5C7C15
:102010004FEAEC0CA0EBCC084FF0800C4CFA08FC1B
:1020200025EA0C0CDFF84882D8F8008008F802C0D6
:1020300014E006464FEAE07C00EB5C7C4FEAEC0CD7
:10204000A0EBCC084FF0800C4CFA08FC4CEA050CD5
:10205000DFF81C82D8F8008008F802C000BF69E7EA
:1020600030B50246002110E0002008E0804C648A70
:1020700001FB04037E4D2D68EA54441CA0B27C4C45
:10208000648A8442F2DC4C1CA1B2794CA48A8C4252
:10209000EADC30BD2DE9F04706460F4690469946EA
:1020A000DDF820A03D460CE0344606E052462946C5
:1020B0002046FFF732FF601C84B24445F6DB681C03
:1020C00085B24D45F0DBBDE8F0872DE9F0470746C6
:1020D000884691461C46DDF820A065488088B842B5
:1020E00003DB6348C088404501DABDE8F087BAF1F8
:1020F000010F23D100251CE0002613E07819001BF6
:1021000003D408EB0600001B00D50FE008EB060225
:10211000121B91B27A19121B90B24A46FFF7FDFECC
:10212000701C06B26000401EB042E7DC00BF681CB5
:1021300005B26000401EA842DEDC15E0002511E07B
:1021400000260BE008EB0602521E91B27A19521ECD
:1021500090B24A46FFF7E1FE701C06B2A642F1DBE0
:10216000681C05B2A542EBDB00BFBEE72DE9F04FCE
:1021700086B004460D4616461F46A0460595301B00
:1021800001D4301B00E0A01B0490781B01D4781B05
:1021900000E0E81B82460498A0EB0A09B44202DD85
:1021A0004FF0FF3000E001200290BD4202DD4FF011
:1021B000FF3000E0012001904FF0000B00BF0BF159
:1021C000010B119801280ED103209BFBF0F100FBBD
:1021D00011B040B9012000904046DDE90F23059978
:1021E000FFF773FF09E0119838B9012000904046CD
:1021F000DDE90F230599FFF768FFB04503D1059886
:10220000B84200D119E04FEA49000390CAF1000139
:102210000398884205DBA9EB0A09029840441FFA9B
:1022200080F8DDE903018842C9DC04988144019902
:102230000598084480B20590C1E700BF06B0BDE82C
:10224000F08F2DE9FE4F81460F4692469846DDE914
:102250000DB50C9C0648808848450EDB0448C088B4
:10226000B8420ADB02488088504506DB004801E09E
:10227000D0120020C088404501DABDE8FE8FBBF1D6
:10228000010F10D13E460BE0002033465246314646
:10229000CDE9004502904846FFF768FF701C86B202
:1022A0004645F1DB27E000203B4652463946CDE962
:1022B000004502904846FFF759FF002043464A4632
:1022C0003946CDE9004502904846FFF74FFF002010
:1022D000434652463946CDE9004502905046FFF745
:1022E00045FF0020434652464146CDE90045029055
:1022F0004846FFF73BFF00BFBFE72DE9F84F054613
:102300000E4691469B4600244F46C9F1010AFE48FD
:102310008088A84203DBFC48C088B04204DAFBA0F6
:1023200000F0CCFABDE8F88FC5E00A98002850D13B
:102330000120F21991B22A19009090B25A460B9BD3
:10234000FFF7C3FE0120321991B2EA19009090B252
:102350005A460B9BFFF7B9FE0120F21991B22A1BD6
:10236000009090B25A460B9BFFF7AFFE0120321946
:1023700091B2EA1B009090B25A460B9BFFF7A5FE64
:102380000120F21B91B22A1B009090B25A460B9B7F
:10239000FFF79BFE0120321B91B2EA1B009090B226
:1023A0005A460B9BFFF791FE0120F21B91B22A19AE
:1023B000009090B25A460B9BFFF787FE0120321B1C
:1023C00091B2EA19009090B25A460B9BFFF77DFE3E
:1023D00062E00A9801285FD1A0465BE0012006EB8D
:1023E000080291B22A19009090B25A460B9BFFF74F
:1023F0006CFE0120321991B205EB0802009090B2F8
:102400005A460B9BFFF761FE012006EB080291B2D2
:102410002A1B009090B25A460B9BFFF756FE0120F4
:10242000321991B2A5EB0802009090B25A460B9B6C
:10243000FFF74BFE0120A6EB080291B22A1B009089
:1024400090B25A460B9BFFF740FE0120321B91B21F
:10245000A5EB0802009090B25A460B9BFFF735FEA1
:102460000120A6EB080291B22A19009090B25A46B8
:102470000B9BFFF72AFE0120321B91B205EB0802ED
:10248000009090B25A460B9BFFF71FFE08F1010027
:102490001FFA80F8B845A1DDBAF1000F03DA600039
:1024A000C01C824405E0E01B4000401D8244781EB1
:1024B00087B2601C84B2A7423FF737AF00BF31E755
:1024C0002DE9FC4F0746884692461D46DDF82CB0A4
:1024D0008D488088B84203DB8B48C088404501DACC
:1024E000BDE8FC8FA988CA1701EB5272D2100846CA
:1024F000CB1701EB5373DB10A1EBC3030BB101232B
:1025000000E000231A44EB885A4392B20092AAF1E9
:102510002000009A504301902968019801EB0009BE
:10252000002651E0002440E0BBF1FF0F14D1E11779
:1025300004EB5171C910A4EBC1028021114199F83B
:102540000020114029B308EB060291B23A1990B26B
:102550000C9AFFF7E2FC1CE0E11704EB5171C91083
:10256000A4EBC1028021114199F80020114041B132
:1025700008EB060291B23A1990B20C9AFFF7CDFC23
:1025800007E008EB060291B23A1990B25A46FFF7FB
:10259000C4FCE11704EB5171C910A4EBC101072978
:1025A00001D109F10109601C84B2A888A042BBDCFA
:1025B000A888C11700EB5171C910A0EBC10109B186
:1025C00009F10109701C86B2E888B042AADC00BF9C
:1025D00086E72DE9FC4F0746884615461C46DDE98F
:1025E0000BAB3E46C14620E0A0883044464989886E
:1025F000884204DD3E46E08848441FFA80F9E088BE
:1026000048444149C988884203DDC146A088304416
:1026100086B2CDE900AB15F8012B2346494630467A
:10262000FFF74EFFA088304486B228780028DBD11F
:10263000BDE8FC8F2DE9F04FADF5037D06460F4652
:1026400015469946DDF834B2DDF830A20024A046E4
:102650004FF4807143A800F03DF94FF4807103A856
:1026600000F038F943A8029027488088B04203DB85
:102670002548C088B84203DA0DF5037DBDE8F08F28
:102680000CE00A2095FBF0F100FB1150303003A95B
:102690000855601C04B20A2095FBF0F5002DF0D11E
:1026A0000BE0601E03A9085C43A901F8080008F1CB
:1026B00001000FFA80F8601E04B2002CF1DC4B46DA
:1026C000CDE900AB39463046029AFFF782FF00BFE2
:1026D000D2E72DE9FF4F85B0054690469A46DDE9E1
:1026E000126716A207CA02AC07C4BAF8044098F8E9
:1026F00004000A2190FBF1F002A911F80090534662
:102700004A46CDE900671FE0D01200204552523AF8
:10271000636972636C652063656E74657220706FA7
:10272000696E74206F7574206F66207363726565BF
:102730006E2061726561210D0A0000003031323374
:10274000343536373839000028460699FFF7B8FE89
:1027500098F804000A2190FBF1F201FB120002A993
:1027600011F80090291988B253464A46CDE900670E
:102770000699FFF7A5FEA146E11704EB91712A190E
:1027800002EBA101A34604EBDB7201EB620188B20C
:1027900053463A22CDE900670699FFF791FE98F873
:1027A00005000A2190FBF1F002A911F800B004EB3A
:1027B000D97105EB440202EB610188B253465A46D7
:1027C000CDE900670699FFF77BFE98F805000A211E
:1027D00090FBF1F201FB120002A911F800B004EB2A
:1027E000D97104EB44022A4402EB610188B25346DA
:1027F0005A46CDE900670699FFF762FE04EBD971EE
:1028000005EB840202EB6101A346E21704EB92722E
:10281000A1EBA20188B253463A22CDE9006706999E
:10282000FFF74EFE98F806000A2190FBF1F002A98E
:1028300011F8009004EB8401294488B253464A46BB
:10284000CDE900670699FFF73BFE98F806000A21DC
:1028500090FBF1F201FB120002A911F8009004EBC9
:10286000440105EB410188B253464A46CDE9006771
:102870000699FFF725FE09B0BDE8F08F30B5024696
:102880000023002111E0002009E00A4C648A01FBCA
:102890000403D45C074D2D68EC54441CA0B2054CD5
:1028A000648A8442F1DC4C1CA1B2024CA48A8C42A2
:1028B000E9DC30BDD0120020704700000FB404499D
:1028C00010B503AA029800F031F810BC5DF814FBB3
:1028D000180000204FF0000200B5134694469646BB
:1028E000203922BFA0E80C50A0E80C50B1F1200123
:1028F000BFF4F7AF090728BFA0E80C5048BF0CC0D1
:102900005DF804EB890028BF40F8042B08BF70472E
:1029100048BF20F8022B11F0804F18BF00F8012BA0
:10292000704770477047704770470000074B70B59D
:102930000D467B4400F011F80446284600F020F8CC
:1029400010B14FF0FF3070BD204670BD45DEFFFF77
:1029500001694A1C02610878704700B58FB0CDE963
:1029600001310021059105497944CDE90310114653
:10297000684600F02EF80FB000BD0000E5FFFFFF35
:10298000007B00F080007047754600F03FF8AE46CF
:1029900005006946534620F00700854618B020B56B
:1029A000FDF756FFBDE820404FF000064FF000074E
:1029B0004FF000084FF0000B21F00701AC46ACE8E7
:1029C000C009ACE8C009ACE8C009ACE8C0098D4654
:1029D00070472DE9F04106460024D6E90170F568FC
:1029E0008046304603E04146B847641C3046A8475D
:1029F0000028F8D12046BDE8F08110B50446AFF3B9
:102A000000802046BDE81040FDF7B7BB0048704786
:102A1000E8120020FFFFFFFFFFFFFFFFFFFFFFFFA8
:102A2000FFFFFFFFFFFFFFFFFFFFFFFFFFFFFFFFB6
:102A3000FFFFFFFFFFFFFFFFFFFFFFFFFFFFFFFFA6
:102A4000FFDFFFF7FFDFFFF7FFDFFFF7FFDFFFE746
:102A5000FF800007FF000007FF000007FFFFFFE700
:102A6000FFFFFFF7FFFFFFF7FFFFFFF7FFFFFFFF8E
:102A7000FFFFFFFFFFFFFFFFFFFFFFFFFFFFFFFF66
:102A8000FFFFFFFFFFFFFFFFFFFFFFFFFFFFFFFF56
:102A9000FFFFFFFFFFFFFFFFFFFFFFFFFFFFFFFF46
:102AA000FFFFFFFFFFFFFFFFFFFFFFFFFFFFFFFF36
:102AB000FFFFFFFFFFFFFFFFFFFFFFFFFFE1FFC77C
:102AC000FFC1FF87FF99FF27FF3FFE67FF7FFCE7FE
:102AD000FF7FF9E7FF7FF3E7FF7FE7E7FF3FCFE700
:102AE000FF1F1FE7FF803FC7FF807E07FFE0FE1F3D
:102AF000FFFFFFFFFFFFFFFFFFFFFFFFFFFFFFFFE6
:102B0000FFFFFFFFFFFFFFFFFFFFFFFFFFFFFFFFD5
:102B1000FFFFFFFFFFFFFFFFFFFFFFFFFFFFFFFFC5
:102B2000FFFFFFFFFFFFFFFFFFFFFFFFFFFFFFFFB5
:102B3000FFFFFFFFFFFFFFFFFFFFFFFFFFC3FE1FC2
:102B4000FF83FE0FFF83FE0FFF3FFFE7FF7FBFF70F
:102B5000FF7FBFF7FF7FBFF7FF3F1FF7FF1E1FE796
:102B6000FF804FCFFF80C00FFFE1E01FFFFFF87F26
:102B7000FFFFFFFFFFFFFFFFFFFFFFFFFFFFFFFF65
:102B8000FFFFFFFFFFFFFFFFFFFFFFFFFFFFFFFF55
:102B9000FFFFFFFFFFFFFFFFFFFFFFFFFFFFFFFF45
:102BA000FFFFFFFFFFFFFFFFFFFFFFFFFFFFFFFF35
:102BB000FFFFFFFFFFFFFFFFFFFFFDFFFFFFF1FF35
:102BC000FFFFE1FFFFFF8DFFFFFE1DFFFFFC7DFB11
:102BD000FFF0FDFBFFE3FDFBFF800003FF000003B0
:102BE000FF000003FF000003FFFFFDFBFFFFFDFBF5
:102BF000FFFFFDFBFFFFFFFFFFFFFFFFFFFFFFFFEB
:102C0000FFFFFFFFFFFFFFFFFFFFFFFFFFFFFFFFD4
:102C1000FFFFFFFFFFFFFFFFFFFFFFFFFFFFFFFFC4
:102C2000FFFFFFFFFFFFFFFFFFFFFFFFFFFFFFFFB4
:102C3000FFFFFFFFFFFFFFFFFFFFFFFFFFFFFE1F85
:102C4000FFF81E0FFF001E67FF073FF7FF3E7FF7ED
:102C5000FF3EFFF7FF3EFFF7FF3EFFF7FF3E7FE738
:102C6000FF3E3F8FFF3F000FFF3F801FFF3FE07F92
:102C7000FFFFFFFFFFFFFFFFFFFFFFFFFFFFFFFF64
:102C8000FFFFFFFFFFFFFFFFFFFFFFFFFFFFFFFF54
:102C9000FFFFFFFFFFFFFFFFFFFFFFFFFFFFFFFF44
:102CA000FFFFFFFFFFFFFFFFFFFFFFFFFFFFFFFF34
:102CB000FFFFFFFFFFFFFFFFFFFFFFFFFFFE00FF24
:102CC000FFF0003FFFE0001FFFC38F0FFF9F9FC774
:102CD000FF3F3FE7FF3F7FF7FF7F7FF7FF7F7FF7F4
:102CE000FF7F3FE7FF0F1FCFFF8F800FFFCFC01F7A
:102CF000FFFFE07FFFFFFFFFFFFFFFFFFFFFFFFF83
:102D0000FFFFFFFFFFFFFFFFFFFFFFFFFFFFFFFFD3
:102D1000FFFFFFFFFFFFFFFFFFFFFFFFFFFFFFFFC3
:102D2000FFFFFFFFFFFFFFFFFFFFFFFFFFFFFFFFB3
:102D3000FFFFFFFFFFFFFFFFFFFFFFFFFFC3FFFFDF
:102D4000FF03FFFFFF0FFFFFFF1FFFFFFF3FFE0718
:102D5000FF3FF007FF3F8007FF3E0FFFFF387FFF79
:102D6000FF21FFFFFF07FFFFFF1FFFFFFF3FFFFFE9
:102D7000FFFFFFFFFFFFFFFFFFFFFFFFFFFFFFFF63
:102D8000FFFFFFFFFFFFFFFFFFFFFFFFFFFFFFFF53
:102D9000FFFFFFFFFFFFFFFFFFFFFFFFFFFFFFFF43
:102DA000FFFFFFFFFFFFFFFFFFFFFFFFFFFFFFFF33
:102DB000FFFFFFFFFFFFFFFFFFFFF83FFFE1F01FF7
:102DC000FFC0E00FFF8047CFFF1C0FE7FF3E1FF75C
:102DD000FF7F1FF7FF7F9FF7FF7F8FF7FF3F87E79B
:102DE000FF1E03CFFF80600FFFC0F01FFFE1F83F21
:102DF000FFFFFFFFFFFFFFFFFFFFFFFFFFFFFFFFE3
:102E0000FFFFFFFFFFFFFFFFFFFFFFFFFFFFFFFFD2
:102E1000FFFFFFFFFFFFFFFFFFFFFFFFFFFFFFFFC2
:102E2000FFFFFFFFFFFFFFFFFFFFFFFFFFFFFFFFB2
:102E3000FFFFFFFFFFFFFFFFFFF03FFFFFC01F8F00
:102E4000FF800F8FFF8FC787FF3FE7F7FF7FF7F701
:102E5000FF7FF7F7FF7FF7E7FF7FE7C7FF3FCF8FE2
:102E6000FF8F8C1FFFC0003FFFE0007FFFF803FFD4
:102E7000FFFFFFFFFFFFFFFFFFFFFFFFFFFFFFFF62
:102E8000FFFFFFFFFFFFFFFFFFFFFFFFFFFFFFFF52
:102E9000FFFFFFFFFFFFFFFFFFFFFFFFFFFFFFFF42
:102EA000FFFFFFFFFFFFFFE003FFFFFFFFFFFC004F
:102EB000001FFFFFFFFFE0000003FFFFFFFF800098
:102EC0000000FFFFFFFE000000003FFFFFFC0000CE
:102ED00000001FFFFFF8000000000FFFFFF003FFDE
:102EE000FFE007FFFFE03FFFFFFE03FFFFE0FFFF04
:102EF000FFFF83FFFFC1FFFFFFFFC1FFFFC7FFFF12
:102F0000FFFFF1FFFFC7FFFFFFFFF1FFFFCFFFFF55
:102F1000FFFFF9FFFFCFFFFFFFFFF9FFFFC7FFFF35
:102F2000FFFFF1FFFFC7FFFFFFFFF1FFFFC3FFFF41
:102F3000FFFFE1FFFFE0FFFFFFFF83FFFFE03FFF39
:102F4000FFFE03FFFFF003FFFFC007FFFFF80000D5
:102F500000000FFFFFFC000000001FFFFFFE00004D
:102F600000003FFFFFFF80000000FFFFFFFFE000C9
:102F70000003FFFFFFFFFE00003FFFFFFFFFFFFF1B
:102F8000FFFFFFFFFFFFFFFFFFFFFFFFFFFFFFFF51
:102F9000FFFFFFFFFFFFFFFFFFFFFFFFFFFFFFFF41
:102FA000FFFFFFFFFFFFFFFFFFFFFFFFFFFFFFFF31
:102FB000FFFFFFFFFFFFFFFFFFFFFFFFFFFFFFFF21
:102FC000FFFFFFFFFFFCFFFFFFFFF3FFFFFCFFFF23
:102FD000FFFFF3FFFFFCFFFFFFFFF3FFFFFCFFFF1F
:102FE000FFFFF3FFFFFCFFFFFFFFF3FFFFFCFFFF0F
:102FF000FFFFF3FFFFF8FFFFFFFFE3FFFFF8000015
:10300000000003FFFFF00000000003FFFFF00000DE
:10301000000003FFFFC00000000003FFFFC000002E
:10302000000003FFFFC00000000003FFFFFFFFFFE1
:10303000FFFFC3FFFFFFFFFFFFFFE3FFFFFFFFFFF8
:10304000FFFFF3FFFFFFFFFFFFFFF3FFFFFFFFFFA8
:10305000FFFFF3FFFFFFFFFFFFFFF3FFFFFFFFFF98
:10306000FFFFF3FFFFFFFFFFFFFFFFFFFFFFFFFF7C
:10307000FFFFFFFFFFFFFFFFFFFFFFFFFFFFFFFF60
:10308000FFFFFFFFFFFFFFFFFFFFFFFFFFFFFFFF50
:10309000FFFFFFFFFFFFFFFFFFFFFFFFFFFFFFFF40
:1030A000FFFFFFFFFFFFFFFFFFFFE3FFFFFFC1FF8A
:1030B000FFFF83FFFFFF00FFFFFE03FFFFFC007F1A
:1030C000FFFC03FFFFF8007FFFF803FFFFF0007F26
:1030D000FFF043FFFFF0007FFFE1C3FFFFE1F07F60
:1030E000FF83C3FFFFE3FFFFFF07C3FFFFE7FFFF10
:1030F000FE0FC3FFFFC7FFFFFC1FC3FFFFCFFFFF94
:10310000F83FC3FFFFCFFFFFF07FC3FFFFCFFFFFFD
:10311000E0FFC3FFFFCFFFFFC1FFC3FFFFCFFFFFF4
:1031200083FFC3FFFFC7FFFF07FFC3FFFFC7FFFC0E
:103130000FFFC3FFFFC3FFF01FFFC3FFFFE0FFC090
:103140003FFFC3FFFFE000007FFF83FFFFF00000B1
:10315000FFFF83FFFFF00001FFFE03FFFFF8000702
:10316000FFF003FFFFFC000FFFE003FFFFFF007F06
:10317000FFE00FFFFFFFFFFFFFE7FFFFFFFFFFFF86
:10318000FFFFFFFFFFFFFFFFFFFFFFFFFFFFFFFF4F
:10319000FFFFFFFFFFFFFFFFFFFFFFFFFFFFFFFF3F
:1031A000FFFFFFFFFFFFFFFFFFFFFFFFFFFFFFFF2F
:1031B000FFF87FFFFFFE07FFFFF01FFFFFFC03FF8D
:1031C000FFE00FFFFFF803FFFFE007FFFFF003FF43
:1031D000FFE007FFFFE003FFFFE003FFFFE3C3FFA4
:1031E000FFF0E3FFFFE7FFFFFFFFF1FFFFC7FFFC7B
:1031F000FFFFF1FFFFCFFFFCFFFFF9FFFFCFFFFC59
:10320000FFFFF9FFFFCFFFFCFFFFF9FFFFCFFFFC40
:10321000FFFFF9FFFFCFFFF87FFFF9FFFFC7FFF8C0
:103220007FFFF1FFFFC3FFF07FFFF1FFFFC1FFE270
:103230003FFFE1FFFFE07F821FFFC3FFFFE00003CE
:103240000FFF83FFFFF0000701FC07FFFFF8000FEF
:10325000800007FFFFFC001F80000FFFFFFE003F04
:10326000C0001FFFFFFF80FFF0003FFFFFFFFFFFD9
:10327000F800FFFFFFFFFFFFFF07FFFFFFFFFFFF5C
:10328000FFFFFFFFFFFFFFFFFFFFFFFFFFFFFFFF4E
:10329000FFFFFFFFFFFFFFFFFFFFFFFFFFFFFFFF3E
:1032A000FF7FFFFFFFFFFFFFFC7FFFFFFFFFFFFF31
:1032B000F87FFFFFFFFFFFFFE07FFFFFFFFFFFFF44
:1032C000807FFFFFFFFFFFFF027FFFFFFFFFFFFC8D
:1032D0000E7FFFFFFFFFFFF83E7FFFFFFFFFFFE0D6
:1032E0007E7FFFFFFFFFFF81FE7FFFFFFFFFFF03EA
:1032F000FE7FFFFFFFFFFC0FFE7FF3FFFFFFF83FA6
:10330000FE7FF3FFFFFFE07FFE7FF3FFFFFFC1FFC4
:10331000FE7FF3FFFFFF03FFFE7FF3FFFFFC0FFFC6
:10332000FE7FF3FFFFF80000000003FFFFE0000056
:10333000000003FFFFE00000000003FFFFE00000CB
:10334000000003FFFFE00000000003FFFFE00000BB
:10335000000003FFFFFFFFFFFE7FF3FFFFFFFFFF04
:10336000FE7FF3FFFFFFFFFFFE7FF3FFFFFFFFFF87
:10337000FE7FF3FFFFFFFFFFFE7FF3FFFFFFFFFF77
:10338000FE7FF3FFFFFFFFFFFE7FFFFFFFFFFFFF5B
:10339000FFFFFFFFFFFFFFFFFFFFFFFFFFFFFFFF3D
:1033A000FFFFFFFFFFFFFFFFFFFFFFFFFFFFFFFF2D
:1033B000FFF07FFFFFFFFFFFFFE03FFFFFFFF00099
:1033C0001FC01FFFFFE000001FC00FFFFFE0000055
:1033D0001FC007FFFFE0000C1FC003FFFFE1FFF865
:1033E0007FE1E3FFFFE1FFF0FFFFF3FFFFE1FFF10C
:1033F000FFFFF1FFFFE1FFF1FFFFF1FFFFE1FFE35F
:10340000FFFFF9FFFFE1FFE3FFFFF9FFFFE1FFE34C
:10341000FFFFF9FFFFE1FFE3FFFFF9FFFFE1FFE33C
:10342000FFFFF9FFFFE1FFE1FFFFF1FFFFE1FFE138
:10343000FFFFE1FFFFE1FFE0FFFFC3FFFFE1FFF060
:103440003FFF83FFFFE1FFF00FFC03FFFFE1FFF809
:10345000000007FFFFE1FFF800000FFFFFE1FFFCA6
:1034600000001FFFFFE1FFFF00003FFFFFE3FFFF42
:103470008000FFFFFFFFFFFFF80FFFFFFFFFFFFFD1
:10348000FFFFFFFFFFFFFFFFFFFFFFFFFFFFFFFF4C
:10349000FFFFFFFFFFFFFFFFFFFFFFFFFFFFFFFF3C
:1034A000FFFFFFFFFFFFFFF801FFFFFFFFFFFE0031
:1034B0000007FFFFFFFFF0000001FFFFFFFFC0005C
:1034C00000007FFFFFFF000000001FFFFFFE000065
:1034D00000000FFFFFFC0000000007FFFFF807F8E7
:1034E0001FF807FFFFF03FF07FFF03FFFFF0FFE053
:1034F000FFFF83FFFFE1FFE1FFFFE1FFFFE3FFE3EA
:10350000FFFFF1FFFFC7FFC3FFFFF1FFFFC7FFC7CB
:10351000FFFFF9FFFFCFFFC7FFFFF9FFFFCFFFC797
:10352000FFFFF9FFFFCFFFC7FFFFF9FFFFCFFFC38B
:10353000FFFFF1FFFFC7FFC1FFFFF1FFFFC01FC08B
:10354000FFFFE3FFFFC01FE07FFF83FFFFE01FE0FF
:103550000FF807FFFFF01FF000000FFFFFF01FF054
:1035600000000FFFFFFC3FFC00003FFFFFFFFFFEDE
:1035700000007FFFFFFFFFFFC001FFFFFFFFFFFF16
:10358000FFFFFFFFFFFFFFFFFFFFFFFFFFFFFFFF4B
:10359000FFFFFFFFFFFFFFFFFFFFFFFFFFFFFFFF3B
:1035A000FFFFFFFFFFFFFFFFFFFFFFFFFFFFF3FF37
:1035B000FFFFFFFFFFFC03FFFFFFFFFFFFE003FF35
:1035C000FFFFFFFFFFE007FFFFFFFFFFFFE03FFF01
:1035D000FFFFFFFFFFE07FFFFFFFFFFFFFE0FFFFB9
:1035E000FFFFFFFFFFE1FFFFFFFFFFFFFFE1FFFF27
:1035F000FFE003FFFFE1FFFFFE0001FFFFE1FFFF30
:10360000F00001FFFFE1FFFFC00001FFFFE1FFFF4E
:10361000000001FFFFE1FFFC000001FFFFE1FFE010
:10362000000003FFFFE1FF800FFFFFFFFFE1FE004F
:103630007FFFFFFFFFE1FC03FFFFFFFFFFE1F01F44
:10364000FFFFFFFFFFE1C07FFFFFFFFFFFE101FF83
:10365000FFFFFFFFFFE007FFFFFFFFFFFFE01FFF90
:10366000FFFFFFFFFFE07FFFFFFFFFFFFFE1FFFF27
:10367000FFFFFFFFFFE3FFFFFFFFFFFFFFFFFFFF76
:10368000FFFFFFFFFFFFFFFFFFFFFFFFFFFFFFFF4A
:10369000FFFFFFFFFFFFFFFFFFFFFFFFFFFFFFFF3A
:1036A000FFFFFFFFFFFFFFFFFF01FFFFFFFF80FFA7
:1036B000F8007FFFFFFE003FF0003FFFFFFC001F10
:1036C000E0001FFFFFF8000FC0000FFFFFF0000732
:1036D00080FE07FFFFE07C0307FF83FFFFE1FF01A0
:1036E0000FFFC3FFFFE3FF803FFFE3FFFFC7FFC004
:1036F0007FFFF1FFFFC7FFE07FFFF1FFFFCFFFE09C
:103700007FFFF9FFFFCFFFF07FFFF9FFFFCFFFF84B
:103710003FFFF9FFFFCFFFF83FFFF9FFFFCFFFF8B3
:103720001FFFF9FFFFC7FFFC0FFFF1FFFFC7FFF807
:1037300007FFF1FFFFC3FFF007FFE3FFFFE1FFE13A
:1037400001FFE3FFFFE0FF8300FF83FFFFF00007BF
:10375000803E07FFFFF00007C00007FFFFF8000FE3
:10376000E0000FFFFFFC003FF0001FFFFFFF007FA6
:10377000FC007FFFFFFFFFFFFF01FFFFFFFFFFFFD9
:10378000FFFFFFFFFFFFFFFFFFFFFFFFFFFFFFFF49
:10379000FFFFFFFFFFFFFFFFFFFFFFFFFFFFFFFF39
:1037A000FFFFFFFFFFFFF003FFFFFFFFFFFF8000B2
:1037B0007FFFFFFFFFFE00003FFF1FFFFFFC000039
:1037C0001FFC0FFFFFF800000FFC07FFFFF00000D9
:1037D00007FC03FFFFE03FF807FC03FFFFE0FFFFEC
:1037E00003FC01FFFFE3FFFF83FE01FFFFC7FFFFB5
:1037F000C3FFF1FFFFC7FFFFC3FFF9FFFFCFFFFFCD
:10380000E3FFF9FFFFCFFFFFE3FFF9FFFFCFFFFF6C
:10381000E3FFF1FFFFCFFFFFC3FFF1FFFFCFFFFF8C
:10382000C3FFE3FFFFC7FFFF87FFC3FFFFC3FFFF28
:1038300007FF03FFFFE1FFFE0FFC07FFFFE07FFC38
:103840001FE00FFFFFF00FF038001FFFFFF8000030
:1038500000003FFFFFFC000000007FFFFFFE0000B4
:103860000001FFFFFFFF00000007FFFFFFFFE00078
:10387000001FFFFFFFFFFC0001FFFFFFFFFFFFFF37
:10388000FFFFFFFFFFFFFFFFFFFFFFFFFFFFFFFF48
:10389000FFFFFFFFFFFFFFFFFFFFFFFFFFFFFFFF38
:1038A000FFFFFFFFFFFFFFFFFFFFFFFFFFFFFFFF28
:1038B000FFFFFFFFFFFFFFFFFFFFFFFFFFFFFFFF18
:1038C000FFFFFFFFFFFFFFFFFFFFFFFFFFFFFFFF08
:1038D000FFFFFFFFFFFFFFFFFFFFFFFFFFFFFFFFF8
:1038E000FFFFFFFFFFFFFFFFFFFFFFFFFFFFFFC324
:1038F000FFFF87FFFFFFFF81FFFF03FFFFFFFF00C9
:10390000FFFE01FFFFFFFF00FFFE01FFFFFFFF00C3
:10391000FFFE01FFFFFFFF00FFFE01FFFFFFFF00B3
:10392000FFFE01FFFFFFFF81FFFF03FFFFFFFFC35C
:10393000FFFF87FFFFFFFFFFFFFFFFFFFFFFFFFF0F
:10394000FFFFFFFFFFFFFFFFFFFFFFFFFFFFFFFF87
:10395000FFFFFFFFFFFFFFFFFFFFFFFFFFFFFFFF77
:10396000FFFFFFFFFFFFFFFFFFFFFFFFFFFFFFFF67
:10397000FFFFFFFFFFFFFFFFFFFFFFFFFFFFFFFF57
:103C2000FFFFFFFFFFFFFFF7FFFFFFFFFFFFFFFFAC
:103C3000FFFFFFFFFFFF3FF0FFFFFFFFFFFFFFFF63
:103C4000FFFFFFFFFFC3CFF07FFFFFFFFFFFFFFF7F
:103C5000FFFDFFFFFF00E7F03FFFF1FFFFFF9FFFCA
:103C6000FFF8FFFFFF0067F01FFFE0FFFFFF0FFF00
:103C7000FFF07FFFFE0073F00FFFE07FFFFE07FF06
:103C8000FFE07FFFFC0033F007FFC03FFFFC03FFB6
:103C9000FFC03FFFFC0019F007FF001FFFF801FF06
:103CA000FF801FFFFC0019FC07FF000FFFF000FF63
:103CB000FF000FFFF80799FE03FE0007FFE0007FFB
:103CC000FE0007FFF80F9DFE03FC0003FFC0003F4E
:103CD000FC0003FFF81F8CFF03F80001FF80001FAA
:103CE000F80001FFF81FCCFF03F00000FF00000FF9
:103CF000F00000FFF81FCCFF03E000007E0000078B
:103D0000E000007FF81FCCFF03E000007E0000070A
:103D1000E000007FF81FC6FF03F00000FF00000F67
:103D2000F00000FFF81FC67F03F80001FF80001FAE
:103D3000F80001FFF80FE77F03FC0003FFC0003F1E
:103D4000FC0003FFF807E33E03FE0007FFE0007FEF
:103D5000FE0007FFFC07E38E07FF000FFFF000FFE8
:103D6000FF000FFFFC07E1FC07FF801FFFF801FFCA
:103D7000FF801FFFFE07F0780FFF803FFFFC01FF71
:103D8000FFC03FFFFE07F0000FFFE07FFFFE07FFD1
:103D9000FFE07FFFFF07F8001FFFE0FFFFFF0FFFBF
:103DA000FFF0FFFFFF87FC003FFFF1FFFFFF8FFFEA
:103DB000FFF8FFFFFFE7FE007FFFFBFFFFFFFFFFB6
:103DC000FFFFFFFFFFFFFF00FFFFFFFFFFFFFFFF02
:103DD000FFFFFFFFFFFFFFFFFFFFFFFFFFFFFFFFF3
:103DE000FFFFFFFFFFFFFFFFFFFFFFFFFFFFFFFFE3
:103DF000FFFFFFFFFFFFFFFFFFFFFFFFFFFFFFFFD3
:103E0000FFFFFFFFFFFFFFFFFFFFFFFFFFFFFFFFC2
:103E1000FFFFFFFFFE00000003FFFFFFFFFFFFFFAC
:103E2000FFFFFFFFFE00000003FFFFFFFFFFFFFF9C
:103E3000FFFFFFFFFE00000003FFFFFFFFFFFFFF8C
:103E4000FFFFFFFFFE00000003FFFFFFFFFFFFFF7C
:103E5000FFFFFFFFFE00000003FFFFFFFFFFFFFF6C
:103E6000FFFFFFFFFE00000003FFFFFDFFFFFFDF7E
:103E7000FFFFFFFFFE00000003FE3FF0FFF1FF0F1A
:103E8000FE0000FFFE03C03E03FE3FE0FFE3FE0F27
:103E9000FE0000FFFE07E03F03FC3FC0FFE3FC0F16
:103EA000FE0000FFFE07E03F03FC7F80FFE3F80F0A
:103EB000FE0000FFFE07E03F03FC7F08FFC3F00F9A
:103EC000FE7C7CFFFE07E03F03FC3C18FFC3E0CF15
:103ED000FE7C7CFFFE07E03F03FC1038FFE001CFD3
:103EE000FE7C7CFFFE07E03F03FC0078FFE0038FD1
:103EF000FE3C78FFFE07E03F03FE00F8FFE007CF3F
:103F0000FE1878FFFE07E03F03FE01F8FFF00FCF39
:103F1000FE0030FFFE07E03F03FF87F8FFF83FCFCA
:103F2000FF0000FFFC07E03F03FFFFFCFFFFFFCFA8
:103F3000FF8301FFFE07E03F03FFFFFFFFFFFFFFDF
:103F4000FFFF83FFFE07E03F03FFFFFFFFFFFFFFD1
:103F5000FFFFEFFFFE07FFFF03FFFFFFFFFC0FFF69
:103F6000FFFFFFFFFE07FFFF03FFFFF0FFF0078FDC
:103F7000FFFFFFFFFE07FFFF03FFFFF0FFE003C7A8
:103F8000FC0000FFFFFFFFFFFFFFFFF0FFE003C7A4
:103F9000FC0000FFFFFFFFFFFFFFFFF1FFE3E3C7B0
:103FA000FC00007FFFFFFFFFFFFFFFFFFFE7E3C70E
:103FB000FC0000FFFFFFFFFFFFFFFFFFFFC7E3C79E
:103FC000FFFFFFFFFE00000003FFFFFFFFC3E38FC3
:103FD000FFFFFFFFFE00000003FF80F9FFE1C20FBB
:103FE000FFFFFFFFFC00000003FF0078FFE0001F61
:103FF000FFFBC1FFFC00000003FE0078FFF0003F64
:10400000FFF180FFFC00000003FC1838FFF8007F80
:10401000FFF3807FFC00000003FC7E3CFFFF8FFF6E
:10402000FFE38C7FFC00000003FC7E38FFFFFFFFF6
:10403000FFE39C7FFC07E03E03FC7E38FFFFFFFFB1
:10404000FFE39C7FFC07E03F03FC7C70FFFE007FEA
:10405000FFE39CFFFC07E03F03FC0441FFF8001F67
:10406000FFE118FFFC07E03F03FE0001FFF0000F37
:10407000FFF000FFFC07E03F03FF0003FFF0040F29
:10408000FFF000FFFC07E03F03FF800FFFE1C78761
:10409000FFF800FFFC07E03F03FFFFFFFFE38FC7D0
:1040A000FFFFFFFFFC07E03F03FFFFFFFFC78FC7D6
:1040B000FFFFFFFFFC07E03F03FFFFFFFFC78FC7C6
:1040C000FFFFFFFFFC07E03F03FC6000FFC7870F17
:1040D000FFFE03FFFC07E03F03FC6000FFE3C00FAF
:1040E000FFF801FFFC07E03F03FC6000FFE3C01F97
:1040F000FFF000FFFC07E07F03FC6000FFFFE03FF4
:10410000FFF000FFFC07FFFF03FFFFFFFFFFFFFFC4
:10411000FFE1F87FFC07FFFF03FFFFFFFFFFFFFF4B
:10412000FFE3FC7FFC07FFFF03FFFFFFFFFFFFFF35
:10413000FFE3FC7FFFFFFFFFFFFFE000FFF77FFFD4
:10414000FFE3FC7FFFFFFFFFFFFFE000FFE63FFF15
:10415000FFF1F8FFFFFFFFFFFFFFE000FFE27FFF3F
:10416000FFF1F8FFFFFFFFFFFFFFF000FFF0FFFF91
:10417000FFFFFFFFFC00000003FFF1FFFF800FFFC8
:10418000FFFFFFFFFC00000003FFE3FFFF800FFFC6
:10419000FFFFFFFFFC00000003FFE3FFFF90DFFFD6
:1041A000FC0000FFFC00000003FFE3FFFFF07FFFC7
:1041B000FC0000FFFC00000003FFE0FFFFE27FFFC8
:1041C000FC0000FFFE00000003FFE000FFE63FFFF1
:1041D000FFFF3FFFFE00000003FFE000FFF7FFFFCF
:1041E000FFFE1FFFFE0007FFFFFFF800FFFFFFFFBE
:1041F000FFFC07FFFF0003FFFFFFFFFFFFFFFFFFC5
:10420000FFF803FFFFC001FFFFFFFFFFFFFFFFFFFE
:10421000FFF0C0FFFFF0007FFFFFFFFFFFFFFFFF8A
:10422000FFF1E0FFFFFC003FFFFFFC07FFF8FFCFBF
:10423000FFE3F8FFFFFE000FFFFFF801FFF9FFCFDC
:10424000FFF7FCFFFFFF8003FFFFF000FFF1FF8F90
:10425000FFFFFFFFFFFFE001FFFFE000FFE1FF8F37
:10426000FFFFFFFFFFFFF0007FFFE3F8FFE0000F1D
:10427000FFFF83FFFFFFFC001FFFE3F8FFE0000FDD
:10428000FFFF01FFFFFFFF000FFFE3FCFFE0000F58
:10429000FF0600FFFFFFFF8003FFE3F8FFFFFF8F34
:1042A000FE0000FFFC00000003FFE3F8FFFFFFCF6C
:1042B000FE00387FFC00000003FFF1F0FFFFFFCF9E
:1042C000FC207C7FFC00000003FFFFFFFFFFFFCF0F
:1042D000FC783C7FFC00000003FFFFFFFFFFFFFFB7
:1042E000FC781C7FFE00000003FFFFFFFFFFFFFFC5
:1042F000FC700C7FFC00000003F80000FFFFFFFFD4
:10430000FC61047FFC00000003F80000FFF1FF8F58
:10431000FC0380FFFFFFFFFFFFF80000FFE3FF0F3C
:10432000FE03C0FFFFFFFFFFFFFFF1FFFFE3FC0FF6
:10433000FF07C1FFFFFFFFFFFFFFE3FFFFE3F80FF2
:10434000FFFE01FFFFFFFFFFFFFFE3FFFFE3F00FB3
:10435000FFFE00FFFFFFC07FFFFFE3FFFFC3E0CFD3
:10436000FFFE007FFFFE000FFFFFE3FFFFC181CFD5
:10437000FFFE3C7FFFF80003FFFFE000FFE0038F3C
:10438000FFFFFC7FFFE00000FFFFE000FFE0078F82
:10439000FFFFFFFFFFC000007FFFF000FFF00FCF27
:1043A000FFFFFFFFFF8000003FFFF800FFF83FCF57
:1043B000FE3FFFFFFF0000001FFFFFFFFFFFFFCFDB
:1043C000FE03FFFFFE001F800FFFFFFFFFFFFFFF49
:1043D000FE003FFFFE00FFE00FFFFFFFFFFFFFFFBC
:1043E000FE0007FFFC01FFF007FFFFFFFFFEFC1FC1
:1043F000FFE000FFFC03FFF807FFFFFFFFF0380FAF
:10440000FFFE00FFF807FFFC03FFFFFFFFE0100FB8
:10441000FFFFE07FF807FFFC03FFFFFFFFE000075F
:10442000FFFFE0FFF80FFFFE03FFFFFFFFE303C7FF
:10443000FFFE00FFF80FE07E03FFFFFFFFE787C7E7
:10444000FFE001FFF80FE07E03FFFFFFFFC7C7C7D4
:10445000FE001FFFF80FE07E03FFFFFFFFC783C7CB
:10446000FE01FFFFF80FE07E03FC0000FFE303C73F
:10447000FE03FFFFF80FE07E03FC0000FFE0000FEB
:10448000FE007FFFF80FE07C03FC0000FFE0300F30
:10449000FF0007FFF807E07C03FC38F8FFF0781F07
:1044A000FFF000FFFC07E07803FC78F8FFFFFC3F1B
:1044B000FFFE00FFFC03E07803FC78F8FFFFFFFF3E
:1044C000FFFFE07FFE03E00003FC78F8FFFFFFFF43
:1044D000FFFFE07FFE03E00003FC78F8FFFFFFFF33
:1044E000FFFE00FFFF07E00003FC78F8FFFFFFFF7F
:1044F000FFE001FFFF87E00003FC7FF8FFFFFFFF05
:10450000FE000FFFFFCFE00003FFFFFFFFFFFFFFF5
:10451000FE00FFFFFFFFE00003FFFFFFFFFFFFFFC5
:10452000FE07FFFFFFFFFFFFFFFFFFFFFFFFFFFF94
:10453000FE7FFFFFFFFFFFFFFFFFFF1FFFFFFFFFEC
:10454000FFFFFFFFFFFFFFFFFFFFFF1FFFE0000F69
:10455000FFFFFFFFFFFFFFFFFFFFFF1FFFE0000F59
:10456000FC0000FFFE00000003FFFF1FFFE0000F44
:10457000FC0000FFFC00000003FFFF1FFFE0000F36
:10458000FC0000FFFC00000003FFFF1FFFE3E3FF50
:10459000FC0000FFFC00000003FFFF3FFFE3E3FF20
:1045A000FFF1FFFFFC001FC003FFFFFFFFE3E3FF7E
:1045B000FFF3FFFFFC007FF003FFFFFFFFE3E3FFDC
:1045C000FFE3FFFFFC00F8F803FF0001FFE1C3FF7A
:1045D000FFE3FFFFFC01E03FFFFE0000FFE003FF01
:1045E000FFE1FFFFFC03C71FFFFC0000FFF007FF18
:1045F000FFE000FFFC039F8FFFFC0000FFF80FFFB0
:10460000FFF000FFFC071FCFFFFC7E3FFFFC3FFFDA
:10461000FFF800FFFE073FE7FFFC7E3FFFFFFFFFC5
:10462000FFFFFFFFFC073FE7FFFC7E3FFFFFFFFFB1
:10463000FFFFFFFFFC073FE7FFFC3C3FFFE7000FEA
:10464000FFFFFFFFFC073FC7FFFE3C7FFFC2000FDD
:10465000FFFFFFFFFE039FC7FFFE007FFFC2000FAB
:10466000FC3000FFFE038F07FFFE007FFFC3000F3B
:10467000FC2000FFFE01C003FFFF00FFFFFFFFFF64
:10468000FC3000FFFE01F001FFFF81FFFFFFFFFF95
:10469000FE7FFFFFFF00FF80FFFFFFFFFFFFFFEF39
:1046A000FFFFFFFFFF003FE0FFFFFFFFFFFF3FCFE8
:1046B000FFFFFFFFFF8001F07FFFFFC3FFFE0F0F33
:1046C000FFF3FFFFFFC000783FFFF381FFFF040F00
:1046D000FFE1FFFFFFE0003C1FFFE380FFFF001F43
:1046E000FF0001FFFFF800FC07FFE300FFFFC07FB2
:1046F000FF0000FFFFFF03FF00FFE71CFFFFE0FFDD
:10470000FF00007FFFFFFFFF007FE71CFFFFC03FB0
:10471000FFE1F87FFFFFFFFF807FE71CFFFF800FB7
:10472000FFF3FC7FFFFFFFFF807FE319FFFF060F12
:10473000FFE3FC7FFFFFFFFF807FE001FFFE1F0F15
:10474000FFF3FCFFFE00000F007FE000FFFF3FCF04
:10475000FFFFFFFFFC00000F00FFF000FFFFFFFF67
:10476000FFFFBFFFFC00003E07FFFE00FFFFFFFF53
:10477000FFFC03FFFC0000787FFFFFFFFFFFF07FDF
:10478000FFF800FFFC0000F0FFFFFFFFFFFF801FAE
:10479000FFF000FFFC0007E1E3FFFFFFFFFF000F5A
:1047A000FFE1187FFC001FC3C3FFE00007FF000FFD
:1047B000FFE39C7FFC03FF0783FFE00007FE1987F0
:1047C000FFE39C7FFC07F81F03FFE00007FE31C7F3
:1047D000FFE39C7FFC07F03F03FFF00007FE39C7B3
:1047E000FFE39C7FFC07E03F03FFF1F1FFFE39C7C9
:1047F000FFE01C7FFC07E03F03FFE3F8FFFE31C74B
:10480000FFF01CFFFC07E03F03FFE3F8FFFF01C7D9
:10481000FFF81CFFFC07E03F03FFE3F8FFFF01CFB9
:10482000FFFC1FFFFC07E03F03FFE1F0FFFF81CF2C
:10483000FFFFFFFFFC07E03F03FFE000FFFFE1FF9A
:10484000FFFFFFFFFC07E0FF03FFE001FFFFFFFFAB
:10485000FFFFFFFFFC07E3FE03FFF003FFFFFFFF87
:10486000FFFFFFFFFC07EFFC03FFFE0FFFF77ABF20
:10487000FFFFFFFFFC07FFE003FFFFFFFFC0000F8C
:10488000FFFFFFFFFC07FF8003FFFFFFFFC00007E4
:10489000FFFFFFFFFC07FE0003FFFC07FFC0000F48
:1048A000FFFFFFFFFC0FF80003FFF801FFFFFFFF12
:1048B000FFFFFFFFFC7FE0000FFFF001FFFFFFFFA6
:1048C000FFFFFFFFFFFF80003FFFE000FFFFFFFF54
:1048D000FFFFFFFFFFFE0000FFFFE318FFFF878FD2
:1048E000FFFFFFFFFFF80007FFFFE71CFFFF03CFFD
:1048F000FFFFFFFFFFE0001FFFFFE71CFFFE01C7F8
:10490000FFFFFFFFFF00007FFFFFE71CFFFE21C747
:10491000FFFFFFFFFE0001FFFFFFE31CFFFE31C7AB
:10492000FFFFFFFFFE000FFFFFFFE01CFFFE38C789
:10493000FFFFFFFFFC003FFFFFFFF018FFFE380FF7
:10494000FFFFFFFFFC001FFFFFFFF819FFFE380FFE
:10495000FFFFFFFFFC0007FFFFFFFFFFFFFF3C1F04
:10496000FFFFFFFFFE0001FFFFFFFFFFFFFFFF7FD5
:10497000FFFFFFFFFF00007FFFFFFFFFFFFFFFFFC5
:10498000FFFFFFFFFFC0000FFFFFF000FFFFFFFF73
:10499000FFFFFFFFFFF00003FFFFE000FFFFFFFF4F
:1049A000FFFFFFFFFFFE0000FFFFE000FFFFFFFF34
:1049B000FFFFFFFFFFFF80003FFFF000FFFFFFFF53
:1049C000FFFFFFFFFEFFE0000FFFF1FFFFFFFFFF14
:1049D000FFFFFFFFFC3FF80003FFE3FFFFFFFFFFC8
:1049E000FFFFFFFFFE0FFE0003FFE3FFFFFFFFFFE0
:1049F000FFFFFFFFFC07FF8003FFE3FFFFFFFFFF59
:104A0000FFFFFFFFFC07FFF003FFF7FFFFFFFFFFC4
:104A1000FFFFFFFFFC07FFFC03FFFFFFFFFFFFFFA0
:104A2000FFFFFFFFFC07FFFF03FFFFFFFFFFFFFF8D
:104A3000FFFFFFFFFC07FFFFC3FFFFFFFFFFFFFFBD
:104A4000FFFFFFFFFC07FFFFF3FFFFFFFFFFFFFF7D
:104A5000FFFFFFFFFC07FFFFFFFFFFFFFFFFFFFF61
:104A6000FFFFFFFFFC07FFFFFFFFFFFFFFFFFFFF51
:104A7000FFFFFFFFFC07FFFFFFFFFFFFFFFFFFFF41
:104A8000FFFFFFFFFC00000003FFFFFFFFFFFFFF32
:104A9000FFFFFFFFFC00000003FFFFFFFFFFFFFF22
:104AA000FFFFFFFFFC00000003FFFFFFFFFFFFFF12
:104AB000FFFFFFFFFC00000003FFFFFFFFFFFFFF02
:104AC000FFFFFFFFFC00000003FFFFFFFFFFFFFFF2
:104AD000FFFFFFFFFC00000003FFFFFFFFFFFFFFE2
:104AE000FFFFFFFFFC00000003FFFFFFFFFFFFFFD2
:104AF000FFFFFFFFFC03FFFFFFFFFFFFFFFFFFFFC5
:104B0000FFFFFFFFFC07FFFFFFFFFFFFFFFFFFFFB0
:104B1000FFFFFFFFFC07FFFFFFFFFFFFFFFFFFFFA0
:104B2000FFFFFFFFFC07FFFFFFFFFFFFFFFFFFFF90
:104B3000FFFFFFFFFC07FFFFFFFFFFFFFFFFFFFF80
:104B4000FFFFFFFFFC07FFFFFFFFFFFFFFFFFFFF70
:104B5000FFFFFFFFFC07FFFFFFFFFFFFFFFFFFFF60
:104B6000FFFFFFFFFC07FFFFFFFFFFFFFFFFFFFF50
:104B7000FFFFFFFFFC07FFFFFFFFFFFFFFFFFFFF40
:104B8000FFFFFFFFFC07FFFFFFFFFFFFFFFFFFFF30
:104B9000FFFFFFFFFFFFFFFFFFFFFFFFFFFFFFFF25
:104BA000FFFFFFFFFFFFFFFFFFFFFFFFFFFFFFFF15
:104BB000FFFFFFFFFFFFFFFFFFFFFFFFFFFFFFFF05
:104BC000FFFFFFFFFFFFFFFFFFFFFFFFFFFFFFFFF5
:104BD000FFFFFFFFFFFFFFFFFFFFFFFFFFFFFFFFE5
:104BE000FFFFFFFFFFFFFFFFFFFFFFFFFFFFFFFFD5
:104BF000FFFFFFFFFFFFFFFFFFFFFFFFFFFFFFFFC5
:104C0000FFFFFFFFFFFFFFFFFFFFFFFFFFFFFFFFB4
:104C1000FFFFFFFFFFFFFFFFFFFFFFFFFFFFFFFFA4
:104C2000FFFFFFFFFFFFFFFFFFFFFFFFFFFFFFFF94
:104C3000FFFFFFFFFFFFFFFFFFFFFFFFFFFFFFFF84
:104C4000FFFFFFFFFFFFFFFFFFFFFFFFFFFFFFFF74
:104C5000FFFFFFFFFFFFFFFFFFFFFFFFFFFFFFFF64
:104C6000FFFFFFFFFFFFFFFFFFFFFFFFFFFFFFFF54
:104C7000FFFFFFFFFFFFFFFFFFFFFFFFFFFFFFFF44
:104C8000FFFFFFFFFFFFFFFFFFFFFFFFFFFFFFFF34
:104C9000FFFFFFFFFFFFFFFFFFFFFFFFFFFFFFFF24
:104CA000FFFFFFFFFFFFFFFFFFFFFFFFFFFFFFFF14
:104CB000FFFFFFFFFFFFFFFFFFFFFFFFFFFFFFFF04
:104CC000FFFFFFFFFFFFFFFFFFFFFFFFFFFFFFFFF4
:104CD000FFFFFFFFFFFFFFFFFFFFFFFFFFFFFFFFE4
:104CE000FFFFFFFFFFFFFFFFFFFFFFFFFFFFFFFFD4
:104CF000FFFFFFFFFFFFFFFFFFFFFFFFFFFFFFFFC4
:104D0000FFFFFFFFFFFFFFFFFFFFFFFFFFFFFFFFB3
:104D1000FFFFFFFF00000000000000000000000097
:104D20000000000000000000000000000000000083
:104D30000000000000000000000000000000000073
:104D40000000000000000000000000000000000063
:104D50000000000000000000000000000000000053
:104D60000000000000000000000000000000000043
:104D70000000000000000000000000000000000033
:104D80000000000000000000000000000000000023
:104D90000000000000000000000000000000000013
:104DA0000000000000000000000000000000000003
:104DB00000000000000000000000000000000000F3
:104DC000000000000000000000000003F8000000E8
:104DD00000000000000000000000001FFF000000B5
:104DE000000000000000FFFFFF00007FFF800000C8
:104DF000000000000000FFFFFF0000FFFFC00000F8
:104E0000000000000000FFFFFF0001FC0FE00000B9
:104E1000000000000000E01E000003F001F00000B0
:104E2000000000000000E01C000003C000F00000D3
:104E3000000000000000E01C000007800078000077
:104E4000000000000000E01E000007800078000065
:104E5000000000000000E01F000007800078000054
:104E6000000000000000F03F800007000038000054
:104E7000000000000000F07FE000070000380000A4
:104E8000000000000000FFFBF800070000380000F1
:104E90000000000000007FF0FE0007000038000066
:104EA0000000000000003FE07F0007800078000065
:104EB0000000000000000F801F000780007000004D
:104EC00000000000000000000700078000700000E4
:104ED00000000000000000000300000000000000CF
:104EE00000000000000000000000000000000000C2
:104EF00000000000000000000000000000000000B2
:104F0000000000000000001FF0000000FF80000013
:104F1000000000000000007FFC000003FFC0000054
:104F200000000000000000FFFE000007FFF000008E
:104F300000000000000001F73E00000FC3F0000079
:104F400000000000000001C30F00000F0078000007
:104F500000000000000003C30700001E00780000EE
:104F600000000000000003830700001E003800005E
:104F700000000000000003830700001C0038000050
:104F800000000000000003C30700001C0038000000
:104F900000000000000001C30700001E00380000F0
:104FA00000000000000001FF0700001E0078000064
:104FB00000000000000000FF0E00000F80F0000065
:104FC000000000000000007F0C000007FFF0000060
:104FD000000000000000000F00000007FFE0007F5D
:104FE000FFFF80000000000000000001FF80007F44
:104FF000FFFF800000000000000000007E00007F36
:10500000FFFF8000000000780E0000000000007F1D
:10501000FFFF8000000000FE07000000000000000D
:1050200000000000000001FF070000000000000079
:1050300000000000000001FF07001FFFFFF8000054
:1050400000000000000003C787001FFFFFF80000FA
:10505000000000000000038787001FFFFFF800002A
:105060000000000000000383C7001FFFFFF80001DD
:10507000FFFF800000000383CF000000000000015C
:10508000FFFF8000000003C1FE00000000000001DF
:10509000FFFF8000000001C1FE00000000000000D2
:1050A00038000000000000C0FC000000000000000C
:1050B000600000000000000000000000FF80000011
:1050C000E00000000000000000000003FFE000011D
:1050D000E00000000000000000000007FFE0000109
:1050E000C00000000000001FF000000FC1F0000130
:1050F000E00000000000007FFC00000F00780001CD
:10510000F0000000000000FFFE00001E003800005C
:10511000FFFF8000000001F03E00001C003800008E
:10512000FFFF8000000001E00F00001C00380000BD
:105130003FFF8000000003C00700001C0038000093
:1051400007FF8000000003C00700001E00380000B9
:1051500000000000000003800700000E007800003F
:1051600000000000000003800700000F80F0000036
:1051700000000000000003C00700000FFFF0000166
:10518000C0000000000001C00F000007FFE00001A8
:10519000C0000000000001F01E000001FF80001FA1
:1051A000FFFE0000000000FFFE0000003C00001FAA
:1051B000FFFF00000000007FFC0000000000001F57
:1051C000FFFF80000000003FF00000000000001F13
:1051D000FFFF8000000000078000000000000001C9
:1051E000C0038000000000000000001FFFF8000165
:1051F000C0038000000000000000001FFFF8000155
:10520000C0038000000000000000001FFFF8000045
:10521000000000000003FFFFFF00001FFFF8000078
:10522000000000000003FFFFFF00000380000000FB
:10523000000000000003FFFFFF00000E0000000060
:105240001FFC00000003FFFFFF00001E0000000025
:105250003FFE0000000000000000001C00000000F5
:105260007FFF0000000000000000001E00000000A2
:10527000F98F800000000000000000000000000026
:10528000E187800000000000000000000000000135
:10529000E1838000000003FFF000000E00780001B1
:1052A000C1838000000003FFFC00001F00F8000124
:1052B000C1838000000003FFFE00001F00F8000112
:1052C000E1838000000003FFFF00000E007000007B
:1052D000F1838000000000000F00000000000000CB
:1052E000FF838000000000000700000000000000B5
:1052F0007F870000000000000700000000000000A1
:105300003F800000000000000700000000000000D7
:105310000780000000000000060000000000000000
:1053200000000000000000000E000000000000006F
:1053300000000000000000003C0000000000000031
:1053400000000000000003FFFF000000000000015B
:10535000FFFF8000000003FFFF00000000000001CD
:10536000FFFF8000000003FFFF00000000000001BD
:10537000FFFF8000000000000000000000000000AF
:105380007F0000000000000000000000000000009E
:10539000700000000000000000000000000000009D
:1053A000E000000000000380000007FFFFF800019C
:1053B000E000000000000380000007FFFFF800018C
:1053C000E000000000001FFFF80007FFFFF80001E9
:1053D000E000000000003FFFFE0007FFFFF80001B3
:1053E000C000000000003FFFFF000701E03800019F
:1053F000C000000000007FFFFF000701E03800014F
:10540000C0000000000003C00F000701E038001FCB
:10541000FFFF80000000038007000701E038007FE5
:10542000FFFF80000000038007000701E03800FF55
:10543000FFFF80000000018006000783E07800FF86
:10544000FFFF800000000000000007FFF07801E18E
:10545000C000000000000000000003FF7FF001C159
:10546000C00000000000C000000003FE7FF001C18A
:10547000C00000000001E3FFFF0000F83FE001C0B2
:10548000000000000001E3FFFF0000001F8000009B
:10549000001800000001E3FFFF0000000000000012
:1054A000007F00000000000000000000000000007D
:1054B00070FF8000000000000000000000000000FD
:1054C000E1FF80000000000000000000000000007C
:1054D000E1C380000000000000001FFFFFF8000192
:1054E000C18380000000001FE0001FFFFFF80001E3
:1054F000C38380000000007FF8001FFFFFF8000159
:10550000C3838000000000FFFE00000000000001D7
:10551000E3830000000001FF7E00000000000001A6
:10552000E3060000000001E01F0000000000000092
:10553000FFFF8000000001C00F000000000000001D
:10554000FFFF8000000003C00700000007E000002C
:105550007FFF800000000380070000060FF00000BE
:105560000FFF8000000003800700000E1FF80000FE
:1055700000000000000003C00700000E1C780000BF
:1055800000000000000003C00F00001C18380000DD
:1055900000000000000001E01E00001C3838000080
:1055A00007F00000000001FFFE00001C383800007A
:1055B0001FFC0000000000FFFC00001C3830000051
:1055C0003FFE00000000007FF800001E3060000079
:1055D0007FFF00000000000FE000000FFBF800005C
:1055E000F80F8000000000000000000FFFF800002E
:1055F000F00780000000000000000007FFF8000135
:10560000E00380000000000000000001FFF800013E
:10561000E0038000000000D50C0000000000000145
:10562000E0038000000003FFFF0000000000000115
:10563000E0038000000003FFFF0000000000000105
:10564000E0038000000003FFFF0000003E000000B8
:10565000E00700000000007000000001FFC0000033
:1056600000000000000000C000000003FFE0000098
:1056700000000000000001C000000007FFF0000073
:1056800000000000000003800000000F81F0000017
:1056900007F00000000003800000000F0078000009
:1056A0001FFC0000000003C00000001E00380000C6
:1056B0007FFF0000000003E00000001E0038000033
:1056C0007FFF0000000001FFFF00001C0038000009
:1056D000F18F8000000001FFFF00001C0038000176
:1056E000E18380000000007FFF00001C0038000103
:1056F000C18380000000000FFF00000E0070000159
:10570000C1838000000000000000000000000001D4
:10571000C1838000000000000000000000000001C4
:10572000E183800000000000000000000000000095
:10573000FB838000000001C00F001FFFFFF8000086
:105740007F838000000003E01F001FFFFFF80000C0
:105750007F870000000003E01F001FFFFFF800002C
:105760001F800000000001C00E001FFFFFF80000B6
:105770000000000000000000000000001800000011
:105780000000000000000000000000007E0000009B
:10579000000000000000000000000000FF0000000A
:1057A000F00780000000000000000001FF80000101
:1057B000F00F80000000000000000007E7E000019B
:1057C000F0078000000000000000000F81F00000E2
:1057D000E0070000000000000000001F00F80000CB
:1057E00000000000000000000000001E0078000023
:1057F0000000000000000000000000180038000059
:105800000000000000000000000000100008000080
:105810000000000000000000000000000000000088
:105820000000000000000000000000000000000078
:1058300000000000000000000F00000007800000D2
:1058400000000000000078003F0000001FE00000A2
:105850000000000000007000FF0000003FF00000AA
:10586000000000000000F001FF0000F87FF00000E1
:10587000000000000000E003E70003FEF0780000F5
:10588000000000000000E003C70003FFE038000153
:10589000000600000000E0078700078FC038000FF7
:1058A000E00F00000000E00F07000707E038001FCE
:1058B000F00780000000F01E07000603F038003FEC
:1058C000F80780000000F87C07000707F838007C24
:1058D000F803800000007FF80700070F7C3800788D
:1058E0007C03800000007FF0070007FE3E70007818
:1058F0003E03800000003FE0070003FC1FF0007043
:105900001E03800000000000070001F80FE0007097
:105910001F038000000000000000000007E000708E
:105920000F07800000000000000000000FF0007072
:105930000F8F80000000000000000000FFF80078DA
:1059400007FF0000000007E000000000FE7800787C
:1059500003FF000000001FF80E000000F8380038B8
:1059600001FE000000007FFC0F00000000080000A6
:105970000030000000007FFE070000000000000073
:10598000000000000000F83E0700000000000000DA
:10599000000000000000F01E070007C0000000002B
:1059A000000000000000E00E070007FC00000000FF
:1059B000000000000000E00E070007FF8000007FED
:1059C000FFFF80000000E00E0F0007FFF800007FDF
:1059D000FFFF80000000F01C1E00003FFF80007FE2
:1059E000FFFF80000000F83C7E000003FFF800701D
:1059F0000780000000007FFFFC0000001FF800701F
:105A00000700000000003FFFF000000001F80070F8
:105A10000700000000000FFFE000000007F8007022
:105A200007000000000000FC000000007FF800708C
:105A3000070000000000000000000007FFC0007821
:105A40000F000000000000000000007FFC00007854
:105A50000F00000000000000000007FFC000003F32
:105A6000FE000000000003FFE00007FC0000003F14
:105A7000FE00000000000FFFF80007F00000001F0C
:105A8000FC00000000001FFFFE0007FF0000000FE9
:105A9000F000000000003F1E7E0007FFF000000045
:105AA00000000000000078380F00007FFF000000B9
:105AB000000000000000F07007000003FFF000008D
:105AC000000000000000F070070000003FF8000038
:105AD000000000000000E0700700000003F8007FF5
:105AE000FFFF80000000E0700700000003F8007F67
:105AF000FFFF80000000E0780F0000007FF8007FCB
:105B0000FFFF80000000E07E3E000007FFE0000095
:105B1000000000000000E03FFE0001FFFE0000006A
:105B2000000000000000E01FFC0007FFE000000094
:105B3000000000000000000FF00007FE0000000061
:105B40000000000000000000000007C0000000008E
:105B5000000000000000000000000600000000003F
:105B60000000000000000000000000000000000035
:105B70000000000000001C00000000000000000009
:105B80000000000000000C6000001FFFFFF8000094
:105B90000000000000000CF000001FFFFFF80000F4
:105BA0000000000000008FE000001FFFFFF8000071
:105BB000000000000000FF8000001FFFFFF8000051
:105BC000000000000000FF8000000007000000004F
:105BD0000000000000000FE00000000E00000000C8
:105BE0000000000000000CF00000000E00000000AB
:105BF0000000000000000C600000001C000000001D
:105C00000000000000001C000000001C000000005C
:105C100000000000000000000000001E0000000066
:105C200000000000000000000000001FC000000095
:105C300000000000000000000000000FFFF800005E
:105C40000000000000000E0000000007FFF8000048
:105C50000000000000001C0000000003FFF800002E
:105C60000000000000001C00000000000000000018
:105C700000000000000038000000000000000000EC
:105C80000000000000007FFFFF0000000000000097
:105C9000000000000000FFFFFF0000000000000007
:105CA000000000000000FFFFFF000E1FFFF80000D3
:105CB000000000000000FFFFFF000F1FFFF80000C2
:105CC000000000000000000000000F1FFFF80000AF
:105CD000000000000000000000000E1FFFF80000A0
:105CE00000000000000000000000000000000000B4
:105CF00000000000000000000000000000000000A4
:105D00000000000000000000000000000000000093
:105D100000000000000000001F00001C0000000048
:105D200000000000000078007F00001C0000000060
:105D30000000000000007000FF0001FFFFC0000035
:105D4000000000000000F001FF0001FFFFF0000074
:105D5000000000000000E003E70001FFFFF8000082
:105D6000000000000000E007C70003FFFFF800008C
:105D7000000000000000E00F8700001C0038000059
